{
  "transactions": [
    {
      "hash": "0x1b1492eb957f2fb81566843cb9fd0ca0ee473ab88c81094e8e1eec5b5cae4b99",
      "transactionType": "CALL",
      "contractName": null,
      "contractAddress": "0x388ef73696d54a6f8f80919e658910cf1b8c46e6",
      "function": "mintNft(string)",
      "arguments": [
        "ipfs://bafybeig37ioir76s7mg5oobetncojcm3c3hxasyd4rvid4jqhy4gkaheg4/?filename=0-PUG.json"
      ],
      "transaction": {
        "from": "0xd8e70391c45e6ba88311c4484bc14b7d9d7a7982",
        "to": "0x388ef73696d54a6f8f80919e658910cf1b8c46e6",
        "gas": "0x4151a",
        "value": "0x0",
        "input": "0xda86f4a900000000000000000000000000000000000000000000000000000000000000200000000000000000000000000000000000000000000000000000000000000057697066733a2f2f62616679626569673337696f6972373673376d67356f6f6265746e636f6a636d3363336878617379643472766964346a71687934676b61686567342f3f66696c656e616d653d302d5055472e6a736f6e000000000000000000",
        "nonce": "0x1e",
        "chainId": "0xaa36a7"
      },
      "additionalContracts": [],
      "isFixedGasLimit": false
    }
  ],
  "receipts": [
    {
      "status": "0x1",
      "cumulativeGasUsed": "0xa2d721",
      "logs": [
        {
          "address": "0x388ef73696d54a6f8f80919e658910cf1b8c46e6",
          "topics": [
            "0xddf252ad1be2c89b69c2b068fc378daa952ba7f163c4a11628f55a4df523b3ef",
            "0x0000000000000000000000000000000000000000000000000000000000000000",
            "0x000000000000000000000000d8e70391c45e6ba88311c4484bc14b7d9d7a7982",
            "0x0000000000000000000000000000000000000000000000000000000000000000"
          ],
          "data": "0x",
          "blockHash": "0x44d1414fbfc6dff514ea3798d1938e7324dde3bbaec830ce5301d191ffb6f01c",
          "blockNumber": "0x79d045",
          "transactionHash": "0x1b1492eb957f2fb81566843cb9fd0ca0ee473ab88c81094e8e1eec5b5cae4b99",
          "transactionIndex": "0x61",
          "logIndex": "0x77",
          "removed": false
        }
      ],
      "logsBloom": "0x00000000000000000000000000000000000000000000000000000000000000000000000000000000000000000000000000010000000000000000000000000000000000000000000000000008000000000000000000000000000000000000000000000000020000000000200000000800000000000000000000000010000000000000000000000000000000000000000000400000000000000000000000000000000000000000000000000000000000000000000000100000000000000000000000000002000000000000000000000000000000000000000400000000000020000400000000000000000000000000000000000000000000000000000000000000",
      "type": "0x2",
      "transactionHash": "0x1b1492eb957f2fb81566843cb9fd0ca0ee473ab88c81094e8e1eec5b5cae4b99",
      "transactionIndex": "0x61",
      "blockHash": "0x44d1414fbfc6dff514ea3798d1938e7324dde3bbaec830ce5301d191ffb6f01c",
      "blockNumber": "0x79d045",
      "gasUsed": "0x2ca9a",
      "effectiveGasPrice": "0x95b14b",
      "from": "0xd8e70391c45e6ba88311c4484bc14b7d9d7a7982",
      "to": "0x388ef73696d54a6f8f80919e658910cf1b8c46e6",
      "contractAddress": null
    }
  ],
  "libraries": [],
  "pending": [],
  "returns": {},
  "timestamp": 1742965836,
  "chain": 11155111,
  "commit": "d2ac777"
}